{
  "_format": "hh-sol-artifact-1",
  "contractName": "R3ktify",
  "sourceName": "contracts/r3ktify.sol",
  "abi": [
    {
      "inputs": [],
      "stateMutability": "nonpayable",
      "type": "constructor"
    },
    {
      "anonymous": false,
      "inputs": [
        {
          "indexed": false,
          "internalType": "string",
          "name": "bountyURI",
          "type": "string"
        },
        {
          "indexed": true,
          "internalType": "address",
          "name": "_projectAddress",
          "type": "address"
        }
      ],
      "name": "BountyCreated",
      "type": "event"
    },
    {
      "anonymous": false,
      "inputs": [
        {
          "indexed": false,
          "internalType": "uint256",
          "name": "blocktime",
          "type": "uint256"
        },
        {
          "indexed": true,
          "internalType": "address",
          "name": "offender",
          "type": "address"
        },
        {
          "indexed": false,
          "internalType": "address",
          "name": "amdin",
          "type": "address"
        }
      ],
      "name": "LiftBan",
      "type": "event"
    },
    {
      "anonymous": false,
      "inputs": [
        {
          "indexed": true,
          "internalType": "address",
          "name": "previousOwner",
          "type": "address"
        },
        {
          "indexed": true,
          "internalType": "address",
          "name": "newOwner",
          "type": "address"
        }
      ],
      "name": "OwnershipTransferred",
      "type": "event"
    },
    {
      "anonymous": false,
      "inputs": [
        {
          "indexed": true,
          "internalType": "uint256",
          "name": "bountyId",
          "type": "uint256"
        },
        {
          "indexed": false,
          "internalType": "string",
          "name": "reportURI",
          "type": "string"
        },
        {
          "indexed": true,
          "internalType": "address",
          "name": "r3ktifierAddress",
          "type": "address"
        }
      ],
      "name": "ReportSubmitted",
      "type": "event"
    },
    {
      "anonymous": false,
      "inputs": [
        {
          "indexed": true,
          "internalType": "uint256",
          "name": "bountyId",
          "type": "uint256"
        },
        {
          "indexed": false,
          "internalType": "uint256",
          "name": "reportId",
          "type": "uint256"
        },
        {
          "indexed": true,
          "internalType": "address",
          "name": "r3ktifier",
          "type": "address"
        },
        {
          "indexed": true,
          "internalType": "address",
          "name": "project",
          "type": "address"
        }
      ],
      "name": "RewardedR3ktifier",
      "type": "event"
    },
    {
      "anonymous": false,
      "inputs": [
        {
          "indexed": true,
          "internalType": "bytes32",
          "name": "role",
          "type": "bytes32"
        },
        {
          "indexed": true,
          "internalType": "address",
          "name": "account",
          "type": "address"
        },
        {
          "indexed": true,
          "internalType": "address",
          "name": "sender",
          "type": "address"
        }
      ],
      "name": "RoleGranted",
      "type": "event"
    },
    {
      "anonymous": false,
      "inputs": [
        {
          "indexed": true,
          "internalType": "uint256",
          "name": "bountyId",
          "type": "uint256"
        },
        {
          "indexed": true,
          "internalType": "uint256",
          "name": "reportId",
          "type": "uint256"
        },
        {
          "indexed": false,
          "internalType": "string",
          "name": "_reportURI",
          "type": "string"
        },
        {
          "indexed": false,
          "internalType": "bool",
          "name": "_valid",
          "type": "bool"
        }
      ],
      "name": "ValidatedReport",
      "type": "event"
    },
    {
      "stateMutability": "payable",
      "type": "fallback"
    },
    {
      "inputs": [],
      "name": "ADMIN_ROLE",
      "outputs": [
        {
          "internalType": "bytes32",
          "name": "",
          "type": "bytes32"
        }
      ],
      "stateMutability": "view",
      "type": "function"
    },
    {
      "inputs": [],
      "name": "PERMANENT_BAN_ROLE",
      "outputs": [
        {
          "internalType": "bytes32",
          "name": "",
          "type": "bytes32"
        }
      ],
      "stateMutability": "view",
      "type": "function"
    },
    {
      "inputs": [],
      "name": "PROJECT",
      "outputs": [
        {
          "internalType": "bytes32",
          "name": "",
          "type": "bytes32"
        }
      ],
      "stateMutability": "view",
      "type": "function"
    },
    {
      "inputs": [],
      "name": "PROJECT_ROLE",
      "outputs": [
        {
          "internalType": "bytes32",
          "name": "",
          "type": "bytes32"
        }
      ],
      "stateMutability": "view",
      "type": "function"
    },
    {
      "inputs": [],
      "name": "R3KTIFIER",
      "outputs": [
        {
          "internalType": "bytes32",
          "name": "",
          "type": "bytes32"
        }
      ],
      "stateMutability": "view",
      "type": "function"
    },
    {
      "inputs": [],
      "name": "R3KTIFIER_ROLE",
      "outputs": [
        {
          "internalType": "bytes32",
          "name": "",
          "type": "bytes32"
        }
      ],
      "stateMutability": "view",
      "type": "function"
    },
    {
      "inputs": [],
      "name": "TEMPORARY_BAN_ROLE",
      "outputs": [
        {
          "internalType": "bytes32",
          "name": "",
          "type": "bytes32"
        }
      ],
      "stateMutability": "view",
      "type": "function"
    },
    {
      "inputs": [],
      "name": "TEMPORARY_BAN_TIME",
      "outputs": [
        {
          "internalType": "uint256",
          "name": "",
          "type": "uint256"
        }
      ],
      "stateMutability": "view",
      "type": "function"
    },
    {
      "inputs": [
        {
          "internalType": "address",
          "name": "",
          "type": "address"
        },
        {
          "internalType": "uint256",
          "name": "",
          "type": "uint256"
        }
      ],
      "name": "bounties",
      "outputs": [
        {
          "internalType": "uint256",
          "name": "bountyId",
          "type": "uint256"
        },
        {
          "internalType": "uint256",
          "name": "submissionCount",
          "type": "uint256"
        },
        {
          "internalType": "string",
          "name": "bountyURI",
          "type": "string"
        }
      ],
      "stateMutability": "view",
      "type": "function"
    },
    {
      "inputs": [
        {
          "internalType": "string",
          "name": "bountyURI",
          "type": "string"
        },
        {
          "internalType": "uint256[5]",
          "name": "_rewardBreakdown",
          "type": "uint256[5]"
        }
      ],
      "name": "createBounty",
      "outputs": [],
      "stateMutability": "nonpayable",
      "type": "function"
    },
    {
      "inputs": [
        {
          "internalType": "address",
          "name": "_projectBounty",
          "type": "address"
        }
      ],
      "name": "getAllBountiesForAddress",
      "outputs": [
        {
          "components": [
            {
              "internalType": "uint256",
              "name": "bountyId",
              "type": "uint256"
            },
            {
              "internalType": "uint256",
              "name": "submissionCount",
              "type": "uint256"
            },
            {
              "internalType": "uint256[5]",
              "name": "rewardBreakdown",
              "type": "uint256[5]"
            },
            {
              "internalType": "string",
              "name": "bountyURI",
              "type": "string"
            }
          ],
          "internalType": "struct R3ktify.ProjectBounty[]",
          "name": "",
          "type": "tuple[]"
        }
      ],
      "stateMutability": "view",
      "type": "function"
    },
    {
      "inputs": [],
      "name": "getAllProjects",
      "outputs": [
        {
          "internalType": "address[]",
          "name": "",
          "type": "address[]"
        }
      ],
      "stateMutability": "view",
      "type": "function"
    },
    {
      "inputs": [
        {
          "internalType": "uint256",
          "name": "bountyId",
          "type": "uint256"
        }
      ],
      "name": "getReports",
      "outputs": [
        {
          "components": [
            {
              "internalType": "uint256",
              "name": "reportId",
              "type": "uint256"
            },
            {
              "internalType": "uint256",
              "name": "rewardAmount",
              "type": "uint256"
            },
            {
              "internalType": "string",
              "name": "reportUri",
              "type": "string"
            },
            {
              "internalType": "bool",
              "name": "valid",
              "type": "bool"
            },
            {
              "internalType": "address",
              "name": "r3ktifier",
              "type": "address"
            },
            {
              "internalType": "enum R3ktify.Severity",
              "name": "level",
              "type": "uint8"
            },
            {
              "internalType": "enum R3ktify.RewardStatus",
              "name": "status",
              "type": "uint8"
            }
          ],
          "internalType": "struct R3ktify.Report[]",
          "name": "",
          "type": "tuple[]"
        }
      ],
      "stateMutability": "view",
      "type": "function"
    },
    {
      "inputs": [
        {
          "internalType": "bytes32",
          "name": "role",
          "type": "bytes32"
        },
        {
          "internalType": "address",
          "name": "account",
          "type": "address"
        }
      ],
      "name": "hasRole",
      "outputs": [
        {
          "internalType": "bool",
          "name": "",
          "type": "bool"
        }
      ],
      "stateMutability": "view",
      "type": "function"
    },
    {
      "inputs": [
        {
          "internalType": "address",
          "name": "offenderAddress",
          "type": "address"
        }
      ],
      "name": "liftBan",
      "outputs": [],
      "stateMutability": "nonpayable",
      "type": "function"
    },
    {
      "inputs": [],
      "name": "owner",
      "outputs": [
        {
          "internalType": "address",
          "name": "",
          "type": "address"
        }
      ],
      "stateMutability": "view",
      "type": "function"
    },
    {
      "inputs": [
        {
          "internalType": "address",
          "name": "offenderAddress",
          "type": "address"
        }
      ],
      "name": "permanentBan",
      "outputs": [],
      "stateMutability": "nonpayable",
      "type": "function"
    },
    {
      "inputs": [
        {
          "internalType": "uint256",
          "name": "",
          "type": "uint256"
        }
      ],
      "name": "projectAddresses",
      "outputs": [
        {
          "internalType": "address",
          "name": "",
          "type": "address"
        }
      ],
      "stateMutability": "view",
      "type": "function"
    },
    {
      "inputs": [
        {
          "internalType": "uint256",
          "name": "",
          "type": "uint256"
        }
      ],
      "name": "projectBounties",
      "outputs": [
        {
          "internalType": "uint256",
          "name": "bountyId",
          "type": "uint256"
        },
        {
          "internalType": "uint256",
          "name": "submissionCount",
          "type": "uint256"
        },
        {
          "internalType": "string",
          "name": "bountyURI",
          "type": "string"
        }
      ],
      "stateMutability": "view",
      "type": "function"
    },
    {
      "inputs": [
        {
          "internalType": "string",
          "name": "accountType",
          "type": "string"
        },
        {
          "internalType": "address",
          "name": "accountAddress",
          "type": "address"
        }
      ],
      "name": "register",
      "outputs": [],
      "stateMutability": "nonpayable",
      "type": "function"
    },
    {
      "inputs": [
        {
          "internalType": "address",
          "name": "",
          "type": "address"
        }
      ],
      "name": "registeredProjects",
      "outputs": [
        {
          "internalType": "bool",
          "name": "",
          "type": "bool"
        }
      ],
      "stateMutability": "view",
      "type": "function"
    },
    {
      "inputs": [
        {
          "internalType": "address",
          "name": "",
          "type": "address"
        }
      ],
      "name": "registeredR3ktifiers",
      "outputs": [
        {
          "internalType": "bool",
          "name": "",
          "type": "bool"
        }
      ],
      "stateMutability": "view",
      "type": "function"
    },
    {
      "inputs": [],
      "name": "renounceOwnership",
      "outputs": [],
      "stateMutability": "nonpayable",
      "type": "function"
    },
    {
      "inputs": [
        {
          "internalType": "uint256",
          "name": "",
          "type": "uint256"
        },
        {
          "internalType": "uint256",
          "name": "",
          "type": "uint256"
        }
      ],
      "name": "reports",
      "outputs": [
        {
          "internalType": "uint256",
          "name": "reportId",
          "type": "uint256"
        },
        {
          "internalType": "uint256",
          "name": "rewardAmount",
          "type": "uint256"
        },
        {
          "internalType": "string",
          "name": "reportUri",
          "type": "string"
        },
        {
          "internalType": "bool",
          "name": "valid",
          "type": "bool"
        },
        {
          "internalType": "address",
          "name": "r3ktifier",
          "type": "address"
        },
        {
          "internalType": "enum R3ktify.Severity",
          "name": "level",
          "type": "uint8"
        },
        {
          "internalType": "enum R3ktify.RewardStatus",
          "name": "status",
          "type": "uint8"
        }
      ],
      "stateMutability": "view",
      "type": "function"
    },
    {
      "inputs": [
        {
          "internalType": "address",
          "name": "projectAddress",
          "type": "address"
        },
        {
          "internalType": "uint256",
          "name": "bountyId",
          "type": "uint256"
        },
        {
          "internalType": "uint256",
          "name": "reportId",
          "type": "uint256"
        }
      ],
      "name": "rewardR3ktifier",
      "outputs": [],
      "stateMutability": "payable",
      "type": "function"
    },
    {
      "inputs": [
        {
          "internalType": "uint256",
          "name": "bountyId",
          "type": "uint256"
        },
        {
          "internalType": "address",
          "name": "projectAddress",
          "type": "address"
        },
        {
          "internalType": "string",
          "name": "_reportURI",
          "type": "string"
        },
        {
          "internalType": "uint8",
          "name": "_severityLevel",
          "type": "uint8"
        }
      ],
      "name": "submitReport",
      "outputs": [],
      "stateMutability": "nonpayable",
      "type": "function"
    },
    {
      "inputs": [
        {
          "internalType": "address",
          "name": "offenderAddress",
          "type": "address"
        },
        {
          "internalType": "uint256",
          "name": "banDuration",
          "type": "uint256"
        }
      ],
      "name": "temporaryBan",
      "outputs": [],
      "stateMutability": "nonpayable",
      "type": "function"
    },
    {
      "inputs": [
        {
          "internalType": "address",
          "name": "newOwner",
          "type": "address"
        }
      ],
      "name": "transferOwnership",
      "outputs": [],
      "stateMutability": "nonpayable",
      "type": "function"
    },
    {
      "inputs": [
        {
          "internalType": "uint256",
          "name": "bountyId",
          "type": "uint256"
        },
        {
          "internalType": "uint256",
          "name": "reportId",
          "type": "uint256"
        },
        {
          "internalType": "string",
          "name": "_reportURI",
          "type": "string"
        },
        {
          "internalType": "bool",
          "name": "_valid",
          "type": "bool"
        },
        {
          "internalType": "uint8",
          "name": "_severityLevel",
          "type": "uint8"
        }
      ],
      "name": "validateReport",
      "outputs": [],
      "stateMutability": "nonpayable",
      "type": "function"
    },
    {
      "stateMutability": "payable",
      "type": "receive"
    }
  ],
  "bytecode": "0x60c06040526001608090815250600260a0908152503480156200002157600080fd5b5062000042620000366200007a60201b60201c565b6200008260201b60201c565b620000747fa49807205ce4d355092ef5a8a18f56e8913cf4a201fbe287825b095693c21775336200014660201b60201c565b620001e9565b600033905090565b60008060009054906101000a900473ffffffffffffffffffffffffffffffffffffffff169050816000806101000a81548173ffffffffffffffffffffffffffffffffffffffff021916908373ffffffffffffffffffffffffffffffffffffffff1602179055508173ffffffffffffffffffffffffffffffffffffffff168173ffffffffffffffffffffffffffffffffffffffff167f8be0079c531659141344cd1fd0a4f28419497f9722a3daafe3b4186f6b6457e060405160405180910390a35050565b81600560008373ffffffffffffffffffffffffffffffffffffffff1673ffffffffffffffffffffffffffffffffffffffff168152602001908152602001600020819055503373ffffffffffffffffffffffffffffffffffffffff168173ffffffffffffffffffffffffffffffffffffffff16837f2f8788117e7eff1d82e926ec794901d17c78024a50270940304540a733656f0d60405160405180910390a45050565b60805160a0516149166200020960003960005050600050506149166000f3fe6080604052600436106101c65760003560e01c806380d03829116100f75780639fe6678c11610095578063cf3a4c9211610064578063cf3a4c921461066b578063f2fde38b14610696578063f58a5847146106bf578063f6a220b8146106fe576101cd565b80639fe6678c1461059d578063a19dca61146105c8578063b335349d14610605578063cc13fd3b1461062e576101cd565b806391d14854116100d157806391d14854146104bd578063941e18ee146104fa57806397b3541d146105375780639f24402114610560576101cd565b806380d038291461043e5780638c7e7e69146104695780638da5cb5b14610492576101cd565b80633ebfa8f711610164578063594f0f961161013e578063594f0f96146103945780636ccdb778146103bf578063715018a6146103fc57806375b238fc14610413576101cd565b80633ebfa8f7146103225780633ef2fa6c1461034d5780634fbbe2f414610378576101cd565b80632565232f116101a05780632565232f1461024e578063297f0ec9146102775780632d283db5146102b6578063346f4de2146102f9576101cd565b80631714d7f3146101cf57806319362c71146101fa5780631e59c52914610225576101cd565b366101cd57005b005b3480156101db57600080fd5b506101e4610727565b6040516101f19190613b53565b60405180910390f35b34801561020657600080fd5b5061020f61074b565b60405161021c9190613b53565b60405180910390f35b34801561023157600080fd5b5061024c6004803603810190610247919061300c565b61076f565b005b34801561025a57600080fd5b50610275600480360381019061027091906131b4565b610b81565b005b34801561028357600080fd5b5061029e600480360381019061029991906130c4565b610f13565b6040516102ad93929190613f04565b60405180910390f35b3480156102c257600080fd5b506102dd60048036038101906102d89190613174565b610fd5565b6040516102f09796959493929190613f42565b60405180910390f35b34801561030557600080fd5b50610320600480360381019061031b9190612f39565b611103565b005b34801561032e57600080fd5b506103376112d4565b6040516103449190613b53565b60405180910390f35b34801561035957600080fd5b506103626112f8565b60405161036f9190613b53565b60405180910390f35b610392600480360381019061038d9190612f79565b61131c565b005b3480156103a057600080fd5b506103a96118d8565b6040516103b69190613b53565b60405180910390f35b3480156103cb57600080fd5b506103e660048036038101906103e191906130c4565b6118fc565b6040516103f39190613b16565b60405180910390f35b34801561040857600080fd5b50610411611b66565b005b34801561041f57600080fd5b50610428611b7a565b6040516104359190613b53565b60405180910390f35b34801561044a57600080fd5b50610453611b9e565b6040516104609190613ad2565b60405180910390f35b34801561047557600080fd5b50610490600480360381019061048b9190613068565b611c2c565b005b34801561049e57600080fd5b506104a7611f13565b6040516104b49190613ab7565b60405180910390f35b3480156104c957600080fd5b506104e460048036038101906104df9190612fcc565b611f3c565b6040516104f19190613b38565b60405180910390f35b34801561050657600080fd5b50610521600480360381019061051c9190612f0c565b611f88565b60405161052e9190613b38565b60405180910390f35b34801561054357600080fd5b5061055e600480360381019061055991906130f1565b611fa8565b005b34801561056c57600080fd5b5061058760048036038101906105829190612f0c565b612485565b6040516105949190613b38565b60405180910390f35b3480156105a957600080fd5b506105b26124a5565b6040516105bf9190613b53565b60405180910390f35b3480156105d457600080fd5b506105ef60048036038101906105ea9190612f0c565b6124c9565b6040516105fc9190613af4565b60405180910390f35b34801561061157600080fd5b5061062c60048036038101906106279190612f0c565b612652565b005b34801561063a57600080fd5b50610655600480360381019061065091906130c4565b612724565b6040516106629190613ab7565b60405180910390f35b34801561067757600080fd5b50610680612763565b60405161068d9190613ec0565b60405180910390f35b3480156106a257600080fd5b506106bd60048036038101906106b89190612f0c565b61276a565b005b3480156106cb57600080fd5b506106e660048036038101906106e19190612f39565b6127ee565b6040516106f593929190613f04565b60405180910390f35b34801561070a57600080fd5b5061072560048036038101906107209190612f0c565b6128bd565b005b7f34b0720df51fc665a1a1c2c161c0d5ed75191f138329f83051ad7208fc0a06a281565b7f75e93cbec1305e20301a2c37b8a3a77f3f6e93a5b36449e4383db4a8da490ac681565b3361079a7fa49807205ce4d355092ef5a8a18f56e8913cf4a201fbe287825b095693c2177582611f3c565b6107d9576040517f08c379a00000000000000000000000000000000000000000000000000000000081526004016107d090613d20565b60405180910390fd5b6000836040516020016107ec9190613a74565b6040516020818303038152906040528051906020012090507f34b0720df51fc665a1a1c2c161c0d5ed75191f138329f83051ad7208fc0a06a281148061085157507f1bf91f372c2af291ed40f61e086ec9e9ce34ed3ba651132ae5bdc279b0514acd81145b610890576040517f08c379a000000000000000000000000000000000000000000000000000000000815260040161088790613dc0565b60405180910390fd5b6108ba7f99b4cb81d693045578a6795d2045a8e4a6dc2d789bd539397ae2ce05c660459984611f3c565b15806108ed57506108eb7f226760bb7cff188fc342b1641789dc508f585fd1b254d5ca142383310387d1d784611f3c565b155b61092c576040517f08c379a000000000000000000000000000000000000000000000000000000000815260040161092390613ca0565b60405180910390fd5b7f34b0720df51fc665a1a1c2c161c0d5ed75191f138329f83051ad7208fc0a06a2811415610a9b577f99b4cb81d693045578a6795d2045a8e4a6dc2d789bd539397ae2ce05c6604599600560008573ffffffffffffffffffffffffffffffffffffffff1673ffffffffffffffffffffffffffffffffffffffff168152602001908152602001600020819055506003839080600181540180825580915050600190039060005260206000200160009091909190916101000a81548173ffffffffffffffffffffffffffffffffffffffff021916908373ffffffffffffffffffffffffffffffffffffffff1602179055503073ffffffffffffffffffffffffffffffffffffffff163373ffffffffffffffffffffffffffffffffffffffff167f99b4cb81d693045578a6795d2045a8e4a6dc2d789bd539397ae2ce05c66045997f2f8788117e7eff1d82e926ec794901d17c78024a50270940304540a733656f0d60405160405180910390a4610b7b565b7f226760bb7cff188fc342b1641789dc508f585fd1b254d5ca142383310387d1d7600560008573ffffffffffffffffffffffffffffffffffffffff1673ffffffffffffffffffffffffffffffffffffffff168152602001908152602001600020819055503373ffffffffffffffffffffffffffffffffffffffff168373ffffffffffffffffffffffffffffffffffffffff167f226760bb7cff188fc342b1641789dc508f585fd1b254d5ca142383310387d1d77f2f8788117e7eff1d82e926ec794901d17c78024a50270940304540a733656f0d60405160405180910390a45b50505050565b33610bac7f99b4cb81d693045578a6795d2045a8e4a6dc2d789bd539397ae2ce05c660459982611f3c565b610beb576040517f08c379a0000000000000000000000000000000000000000000000000000000008152600401610be290613ea0565b60405180910390fd5b6000600860008881526020019081526020016000208681548110610c1257610c11614396565b5b9060005260206000209060040201905084604051602001610c339190613a74565b6040516020818303038152906040528051906020012081600201604051602001610c5d9190613a8b565b6040516020818303038152906040528051906020012014610cb3576040517f08c379a0000000000000000000000000000000000000000000000000000000008152600401610caa90613d60565b60405180910390fd5b60058360ff1610610cf9576040517f08c379a0000000000000000000000000000000000000000000000000000000008152600401610cf090613da0565b60405180910390fd5b838160030160006101000a81548160ff0219169083151502179055508260ff166004811115610d2b57610d2a614338565b5b8160030160156101000a81548160ff02191690836004811115610d5157610d50614338565b5b021790555080600860008981526020019081526020016000208781548110610d7c57610d7b614396565b5b906000526020600020906004020160008201548160000155600182015481600101556002820181600201908054610db29061425d565b610dbd929190612ca1565b506003820160009054906101000a900460ff168160030160006101000a81548160ff0219169083151502179055506003820160019054906101000a900473ffffffffffffffffffffffffffffffffffffffff168160030160016101000a81548173ffffffffffffffffffffffffffffffffffffffff021916908373ffffffffffffffffffffffffffffffffffffffff1602179055506003820160159054906101000a900460ff168160030160156101000a81548160ff02191690836004811115610e8a57610e89614338565b5b02179055506003820160169054906101000a900460ff168160030160166101000a81548160ff02191690836001811115610ec757610ec6614338565b5b021790555090505085877fc505781f6b28f6f96db9cdf0bd623c9e5de7a5d91b34a52068dd45a472aa763e8787604051610f02929190613b90565b60405180910390a350505050505050565b60048181548110610f2357600080fd5b9060005260206000209060080201600091509050806000015490806001015490806007018054610f529061425d565b80601f0160208091040260200160405190810160405280929190818152602001828054610f7e9061425d565b8015610fcb5780601f10610fa057610100808354040283529160200191610fcb565b820191906000526020600020905b815481529060010190602001808311610fae57829003601f168201915b5050505050905083565b60086020528160005260406000208181548110610ff157600080fd5b9060005260206000209060040201600091509150508060000154908060010154908060020180546110219061425d565b80601f016020809104026020016040519081016040528092919081815260200182805461104d9061425d565b801561109a5780601f1061106f5761010080835404028352916020019161109a565b820191906000526020600020905b81548152906001019060200180831161107d57829003601f168201915b5050505050908060030160009054906101000a900460ff16908060030160019054906101000a900473ffffffffffffffffffffffffffffffffffffffff16908060030160159054906101000a900460ff16908060030160169054906101000a900460ff16905087565b3361112e7fa49807205ce4d355092ef5a8a18f56e8913cf4a201fbe287825b095693c2177582611f3c565b61116d576040517f08c379a000000000000000000000000000000000000000000000000000000000815260040161116490613d20565b60405180910390fd5b62015180428361117d919061413e565b116111bd576040517f08c379a00000000000000000000000000000000000000000000000000000000081526004016111b490613e80565b60405180910390fd5b6111e77f7f270597f71ceb5ed4bba75a0ae04e9225bb11601700d724f06aa678e67e033f84611f3c565b15611227576040517f08c379a000000000000000000000000000000000000000000000000000000000815260040161121e90613cc0565b60405180910390fd5b7f7f270597f71ceb5ed4bba75a0ae04e9225bb11601700d724f06aa678e67e033f600560008573ffffffffffffffffffffffffffffffffffffffff1673ffffffffffffffffffffffffffffffffffffffff1681526020019081526020016000208190555081600660008573ffffffffffffffffffffffffffffffffffffffff1673ffffffffffffffffffffffffffffffffffffffff16815260200190815260200160002081905550505050565b7f226760bb7cff188fc342b1641789dc508f585fd1b254d5ca142383310387d1d781565b7f1bf91f372c2af291ed40f61e086ec9e9ce34ed3ba651132ae5bdc279b0514acd81565b336113477f99b4cb81d693045578a6795d2045a8e4a6dc2d789bd539397ae2ce05c660459982611f3c565b611386576040517f08c379a000000000000000000000000000000000000000000000000000000000815260040161137d90613ea0565b60405180910390fd5b60006008600085815260200190815260200160002083815481106113ad576113ac614396565b5b90600052602060002090600402016040518060e001604052908160008201548152602001600182015481526020016002820180546113ea9061425d565b80601f01602080910402602001604051908101604052809291908181526020018280546114169061425d565b80156114635780601f1061143857610100808354040283529160200191611463565b820191906000526020600020905b81548152906001019060200180831161144657829003601f168201915b505050505081526020016003820160009054906101000a900460ff161515151581526020016003820160019054906101000a900473ffffffffffffffffffffffffffffffffffffffff1673ffffffffffffffffffffffffffffffffffffffff1673ffffffffffffffffffffffffffffffffffffffff1681526020016003820160159054906101000a900460ff16600481111561150257611501614338565b5b600481111561151457611513614338565b5b81526020016003820160169054906101000a900460ff16600181111561153d5761153c614338565b5b600181111561154f5761154e614338565b5b8152505090508060600151611599576040517f08c379a000000000000000000000000000000000000000000000000000000000815260040161159090613ce0565b60405180910390fd5b6115c77f7f270597f71ceb5ed4bba75a0ae04e9225bb11601700d724f06aa678e67e033f8260800151611f3c565b15806115fe57506115fc7f75e93cbec1305e20301a2c37b8a3a77f3f6e93a5b36449e4383db4a8da490ac68260800151611f3c565b155b61163d576040517f08c379a000000000000000000000000000000000000000000000000000000000815260040161163490613e40565b60405180910390fd5b61166b7f226760bb7cff188fc342b1641789dc508f585fd1b254d5ca142383310387d1d78260800151611f3c565b6116aa576040517f08c379a00000000000000000000000000000000000000000000000000000000081526004016116a190613d00565b60405180910390fd5b600760008673ffffffffffffffffffffffffffffffffffffffff1673ffffffffffffffffffffffffffffffffffffffff16815260200190815260200160002084815481106116fb576116fa614396565b5b90600052602060002090600802016002018160a00151600481111561172357611722614338565b5b60ff166005811061173757611736614396565b5b015434101561177b576040517f08c379a000000000000000000000000000000000000000000000000000000000815260040161177290613c60565b60405180910390fd5b3481602001818152505060018160c00190600181111561179e5761179d614338565b5b908160018111156117b2576117b1614338565b5b815250506000816080015173ffffffffffffffffffffffffffffffffffffffff16346040516117e090613aa2565b60006040518083038185875af1925050503d806000811461181d576040519150601f19603f3d011682016040523d82523d6000602084013e611822565b606091505b5050905080611866576040517f08c379a000000000000000000000000000000000000000000000000000000000815260040161185d90613c80565b60405180910390fd5b8573ffffffffffffffffffffffffffffffffffffffff16826080015173ffffffffffffffffffffffffffffffffffffffff16867f15e3d51def8e6e8423f7f755c979ca60d347676a045e3a2efc6ecdbebec9a68e876040516118c89190613ec0565b60405180910390a4505050505050565b7f7f270597f71ceb5ed4bba75a0ae04e9225bb11601700d724f06aa678e67e033f81565b6060336119297f99b4cb81d693045578a6795d2045a8e4a6dc2d789bd539397ae2ce05c660459982611f3c565b611968576040517f08c379a000000000000000000000000000000000000000000000000000000000815260040161195f90613ea0565b60405180910390fd5b60086000848152602001908152602001600020805480602002602001604051908101604052809291908181526020016000905b82821015611b5a57838290600052602060002090600402016040518060e001604052908160008201548152602001600182015481526020016002820180546119e29061425d565b80601f0160208091040260200160405190810160405280929190818152602001828054611a0e9061425d565b8015611a5b5780601f10611a3057610100808354040283529160200191611a5b565b820191906000526020600020905b815481529060010190602001808311611a3e57829003601f168201915b505050505081526020016003820160009054906101000a900460ff161515151581526020016003820160019054906101000a900473ffffffffffffffffffffffffffffffffffffffff1673ffffffffffffffffffffffffffffffffffffffff1673ffffffffffffffffffffffffffffffffffffffff1681526020016003820160159054906101000a900460ff166004811115611afa57611af9614338565b5b6004811115611b0c57611b0b614338565b5b81526020016003820160169054906101000a900460ff166001811115611b3557611b34614338565b5b6001811115611b4757611b46614338565b5b815250508152602001906001019061199b565b50505050915050919050565b611b6e612b33565b611b786000612bb1565b565b7fa49807205ce4d355092ef5a8a18f56e8913cf4a201fbe287825b095693c2177581565b60606003805480602002602001604051908101604052809291908181526020018280548015611c2257602002820191906000526020600020905b8160009054906101000a900473ffffffffffffffffffffffffffffffffffffffff1673ffffffffffffffffffffffffffffffffffffffff1681526020019060010190808311611bd8575b5050505050905090565b33611c577f99b4cb81d693045578a6795d2045a8e4a6dc2d789bd539397ae2ce05c660459982611f3c565b611c96576040517f08c379a0000000000000000000000000000000000000000000000000000000008152600401611c8d90613ea0565b60405180910390fd5b600083511415611cdb576040517f08c379a0000000000000000000000000000000000000000000000000000000008152600401611cd290613e20565b60405180910390fd5b60058014611d1e576040517f08c379a0000000000000000000000000000000000000000000000000000000008152600401611d1590613c40565b60405180910390fd5b6000611d2a6001612c75565b90506000604051806080016040528083815260200160008152602001856005806020026040519081016040528092919082600560200280828437600081840152601f19601f8201169050808301925050505050508152602001868152509050600760003373ffffffffffffffffffffffffffffffffffffffff1673ffffffffffffffffffffffffffffffffffffffff1681526020019081526020016000208190806001815401808255809150506001900390600052602060002090600802016000909190919091506000820151816000015560208201518160010155604082015181600201906005611e1d929190612d2e565b506060820151816007019080519060200190611e3a929190612d6e565b50505060048190806001815401808255809150506001900390600052602060002090600802016000909190919091506000820151816000015560208201518160010155604082015181600201906005611e94929190612d2e565b506060820151816007019080519060200190611eb1929190612d6e565b505050611ebe6001612c83565b3373ffffffffffffffffffffffffffffffffffffffff167f04ecefe89268ef9e344f8ffc9dda1f5fbeea9328ab03f8641f950a7fdafce25f86604051611f049190613b6e565b60405180910390a25050505050565b60008060009054906101000a900473ffffffffffffffffffffffffffffffffffffffff16905090565b6000600560008373ffffffffffffffffffffffffffffffffffffffff1673ffffffffffffffffffffffffffffffffffffffff168152602001908152602001600020548314905092915050565b600a6020528060005260406000206000915054906101000a900460ff1681565b33611fd37f7f270597f71ceb5ed4bba75a0ae04e9225bb11601700d724f06aa678e67e033f82611f3c565b15612013576040517f08c379a000000000000000000000000000000000000000000000000000000000815260040161200a90613e60565b60405180910390fd5b61203d7f75e93cbec1305e20301a2c37b8a3a77f3f6e93a5b36449e4383db4a8da490ac682611f3c565b1561207d576040517f08c379a000000000000000000000000000000000000000000000000000000000815260040161207490613de0565b60405180910390fd5b6120a77f226760bb7cff188fc342b1641789dc508f585fd1b254d5ca142383310387d1d782611f3c565b6120e6576040517f08c379a00000000000000000000000000000000000000000000000000000000081526004016120dd90613c00565b60405180910390fd5b60008351141561212b576040517f08c379a000000000000000000000000000000000000000000000000000000000815260040161212290613e20565b60405180910390fd5b60058260ff1610612171576040517f08c379a000000000000000000000000000000000000000000000000000000000815260040161216890613da0565b60405180910390fd5b846004868154811061218657612185614396565b5b906000526020600020906008020160000154146121d8576040517f08c379a00000000000000000000000000000000000000000000000000000000081526004016121cf90613be0565b60405180910390fd5b600760008573ffffffffffffffffffffffffffffffffffffffff1673ffffffffffffffffffffffffffffffffffffffff168152602001908152602001600020858154811061222957612228614396565b5b9060005260206000209060080201600101600081548092919061224b906142c0565b919050555060006040518060e001604052806122676002612c75565b8152602001600081526020018581526020016000151581526020013373ffffffffffffffffffffffffffffffffffffffff1681526020018460ff1660048111156122b4576122b3614338565b5b60048111156122c6576122c5614338565b5b8152602001600060018111156122df576122de614338565b5b8152509050600860006122f26002612c75565b81526020019081526020016000208190806001815401808255809150506001900390600052602060002090600402016000909190919091506000820151816000015560208201518160010155604082015181600201908051906020019061235a929190612d6e565b5060608201518160030160006101000a81548160ff02191690831515021790555060808201518160030160016101000a81548173ffffffffffffffffffffffffffffffffffffffff021916908373ffffffffffffffffffffffffffffffffffffffff16021790555060a08201518160030160156101000a81548160ff021916908360048111156123ed576123ec614338565b5b021790555060c08201518160030160166101000a81548160ff0219169083600181111561241d5761241c614338565b5b0217905550505061242e6002612c83565b3373ffffffffffffffffffffffffffffffffffffffff16867ff41ea29a335564573dd96630877e28e7529614e42115e1667bb721cb1a8bd0b0866040516124759190613b6e565b60405180910390a3505050505050565b60096020528060005260406000206000915054906101000a900460ff1681565b7f99b4cb81d693045578a6795d2045a8e4a6dc2d789bd539397ae2ce05c660459981565b6060600760008373ffffffffffffffffffffffffffffffffffffffff1673ffffffffffffffffffffffffffffffffffffffff168152602001908152602001600020805480602002602001604051908101604052809291908181526020016000905b82821015612647578382906000526020600020906008020160405180608001604052908160008201548152602001600182015481526020016002820160058060200260405190810160405280929190826005801561259d576020028201915b815481526020019060010190808311612589575b505050505081526020016007820180546125b69061425d565b80601f01602080910402602001604051908101604052809291908181526020018280546125e29061425d565b801561262f5780601f106126045761010080835404028352916020019161262f565b820191906000526020600020905b81548152906001019060200180831161261257829003601f168201915b5050505050815250508152602001906001019061252a565b505050509050919050565b3361267d7fa49807205ce4d355092ef5a8a18f56e8913cf4a201fbe287825b095693c2177582611f3c565b6126bc576040517f08c379a00000000000000000000000000000000000000000000000000000000081526004016126b390613d20565b60405180910390fd5b7f75e93cbec1305e20301a2c37b8a3a77f3f6e93a5b36449e4383db4a8da490ac6600560008473ffffffffffffffffffffffffffffffffffffffff1673ffffffffffffffffffffffffffffffffffffffff168152602001908152602001600020819055505050565b6003818154811061273457600080fd5b906000526020600020016000915054906101000a900473ffffffffffffffffffffffffffffffffffffffff1681565b6201518081565b612772612b33565b600073ffffffffffffffffffffffffffffffffffffffff168173ffffffffffffffffffffffffffffffffffffffff1614156127e2576040517f08c379a00000000000000000000000000000000000000000000000000000000081526004016127d990613c20565b60405180910390fd5b6127eb81612bb1565b50565b6007602052816000526040600020818154811061280a57600080fd5b90600052602060002090600802016000915091505080600001549080600101549080600701805461283a9061425d565b80601f01602080910402602001604051908101604052809291908181526020018280546128669061425d565b80156128b35780601f10612888576101008083540402835291602001916128b3565b820191906000526020600020905b81548152906001019060200180831161289657829003601f168201915b5050505050905083565b336128e87fa49807205ce4d355092ef5a8a18f56e8913cf4a201fbe287825b095693c2177582611f3c565b612927576040517f08c379a000000000000000000000000000000000000000000000000000000000815260040161291e90613d20565b60405180910390fd5b6129517f7f270597f71ceb5ed4bba75a0ae04e9225bb11601700d724f06aa678e67e033f83611f3c565b612990576040517f08c379a000000000000000000000000000000000000000000000000000000000815260040161298790613bc0565b60405180910390fd5b6129ba7f75e93cbec1305e20301a2c37b8a3a77f3f6e93a5b36449e4383db4a8da490ac683611f3c565b156129fa576040517f08c379a00000000000000000000000000000000000000000000000000000000081526004016129f190613e00565b60405180910390fd5b600660008373ffffffffffffffffffffffffffffffffffffffff1673ffffffffffffffffffffffffffffffffffffffff168152602001908152602001600020544211612a7b576040517f08c379a0000000000000000000000000000000000000000000000000000000008152600401612a7290613d40565b60405180910390fd5b7f226760bb7cff188fc342b1641789dc508f585fd1b254d5ca142383310387d1d7600560008473ffffffffffffffffffffffffffffffffffffffff1673ffffffffffffffffffffffffffffffffffffffff168152602001908152602001600020819055508173ffffffffffffffffffffffffffffffffffffffff167f4bd750e60b7b588f5161dc53f53cce9bbcc4e27b8cbfb9c7247e796d319e138b4233604051612b27929190613edb565b60405180910390a25050565b612b3b612c99565b73ffffffffffffffffffffffffffffffffffffffff16612b59611f13565b73ffffffffffffffffffffffffffffffffffffffff1614612baf576040517f08c379a0000000000000000000000000000000000000000000000000000000008152600401612ba690613d80565b60405180910390fd5b565b60008060009054906101000a900473ffffffffffffffffffffffffffffffffffffffff169050816000806101000a81548173ffffffffffffffffffffffffffffffffffffffff021916908373ffffffffffffffffffffffffffffffffffffffff1602179055508173ffffffffffffffffffffffffffffffffffffffff168173ffffffffffffffffffffffffffffffffffffffff167f8be0079c531659141344cd1fd0a4f28419497f9722a3daafe3b4186f6b6457e060405160405180910390a35050565b600081600001549050919050565b6001816000016000828254019250508190555050565b600033905090565b828054612cad9061425d565b90600052602060002090601f016020900481019282612ccf5760008555612d1d565b82601f10612ce05780548555612d1d565b82800160010185558215612d1d57600052602060002091601f016020900482015b82811115612d1c578254825591600101919060010190612d01565b5b509050612d2a9190612df4565b5090565b8260058101928215612d5d579160200282015b82811115612d5c578251825591602001919060010190612d41565b5b509050612d6a9190612df4565b5090565b828054612d7a9061425d565b90600052602060002090601f016020900481019282612d9c5760008555612de3565b82601f10612db557805160ff1916838001178555612de3565b82800160010185558215612de3579182015b82811115612de2578251825591602001919060010190612dc7565b5b509050612df09190612df4565b5090565b5b80821115612e0d576000816000905550600101612df5565b5090565b6000612e24612e1f84613fdd565b613fb8565b905082815260208101848484011115612e4057612e3f6143fe565b5b612e4b84828561421b565b509392505050565b600081359050612e628161486d565b92915050565b600081905082602060050282011115612e8457612e836143f9565b5b92915050565b600081359050612e9981614884565b92915050565b600081359050612eae8161489b565b92915050565b600082601f830112612ec957612ec86143f4565b5b8135612ed9848260208601612e11565b91505092915050565b600081359050612ef1816148b2565b92915050565b600081359050612f06816148c9565b92915050565b600060208284031215612f2257612f21614408565b5b6000612f3084828501612e53565b91505092915050565b60008060408385031215612f5057612f4f614408565b5b6000612f5e85828601612e53565b9250506020612f6f85828601612ee2565b9150509250929050565b600080600060608486031215612f9257612f91614408565b5b6000612fa086828701612e53565b9350506020612fb186828701612ee2565b9250506040612fc286828701612ee2565b9150509250925092565b60008060408385031215612fe357612fe2614408565b5b6000612ff185828601612e9f565b925050602061300285828601612e53565b9150509250929050565b6000806040838503121561302357613022614408565b5b600083013567ffffffffffffffff81111561304157613040614403565b5b61304d85828601612eb4565b925050602061305e85828601612e53565b9150509250929050565b60008060c0838503121561307f5761307e614408565b5b600083013567ffffffffffffffff81111561309d5761309c614403565b5b6130a985828601612eb4565b92505060206130ba85828601612e68565b9150509250929050565b6000602082840312156130da576130d9614408565b5b60006130e884828501612ee2565b91505092915050565b6000806000806080858703121561310b5761310a614408565b5b600061311987828801612ee2565b945050602061312a87828801612e53565b935050604085013567ffffffffffffffff81111561314b5761314a614403565b5b61315787828801612eb4565b925050606061316887828801612ef7565b91505092959194509250565b6000806040838503121561318b5761318a614408565b5b600061319985828601612ee2565b92505060206131aa85828601612ee2565b9150509250929050565b600080600080600060a086880312156131d0576131cf614408565b5b60006131de88828901612ee2565b95505060206131ef88828901612ee2565b945050604086013567ffffffffffffffff8111156132105761320f614403565b5b61321c88828901612eb4565b935050606061322d88828901612e8a565b925050608061323e88828901612ef7565b9150509295509295909350565b600061325783836132a3565b60208301905092915050565b600061326f8383613956565b905092915050565b600061328383836139ba565b905092915050565b60006132978383613a56565b60208301905092915050565b6132ac81614172565b82525050565b6132bb81614172565b82525050565b60006132cc8261405d565b6132d681856140c8565b93506132e18361400e565b8060005b838110156133125781516132f9888261324b565b975061330483614094565b9250506001810190506132e5565b5085935050505092915050565b600061332a82614068565b61333481856140d9565b9350836020820285016133468561401e565b8060005b8581101561338257848403895281516133638582613263565b945061336e836140a1565b925060208a0199505060018101905061334a565b50829750879550505050505092915050565b600061339f82614073565b6133a981856140ea565b9350836020820285016133bb8561402e565b8060005b858110156133f757848403895281516133d88582613277565b94506133e3836140ae565b925060208a019950506001810190506133bf565b50829750879550505050505092915050565b6134128161407e565b61341c81846140fb565b92506134278261403e565b8060005b8381101561345857815161343f878261328b565b965061344a836140bb565b92505060018101905061342b565b505050505050565b61346981614184565b82525050565b61347881614184565b82525050565b61348781614190565b82525050565b613496816141f7565b82525050565b6134a5816141f7565b82525050565b6134b481614209565b82525050565b6134c381614209565b82525050565b60006134d482614089565b6134de8185614111565b93506134ee81856020860161422a565b6134f78161440d565b840191505092915050565b600061350d82614089565b6135178185614122565b935061352781856020860161422a565b6135308161440d565b840191505092915050565b600061354682614089565b6135508185614133565b935061356081856020860161422a565b80840191505092915050565b600081546135798161425d565b6135838186614133565b9450600182166000811461359e57600181146135af576135e2565b60ff198316865281860193506135e2565b6135b885614048565b60005b838110156135da578154818901526001820191506020810190506135bb565b838801955050505b50505092915050565b60006135f8601c83614122565b91506136038261441e565b602082019050919050565b600061361b601b83614122565b915061362682614447565b602082019050919050565b600061363e600f83614122565b915061364982614470565b602082019050919050565b6000613661602683614122565b915061366c82614499565b604082019050919050565b6000613684601683614122565b915061368f826144e8565b602082019050919050565b60006136a7601f83614122565b91506136b282614511565b602082019050919050565b60006136ca601a83614122565b91506136d58261453a565b602082019050919050565b60006136ed601283614122565b91506136f882614563565b602082019050919050565b6000613710601883614122565b915061371b8261458c565b602082019050919050565b6000613733601883614122565b915061373e826145b5565b602082019050919050565b6000613756600f83614122565b9150613761826145de565b602082019050919050565b6000613779600c83614122565b915061378482614607565b602082019050919050565b600061379c601083614122565b91506137a782614630565b602082019050919050565b60006137bf601183614122565b91506137ca82614659565b602082019050919050565b60006137e2602083614122565b91506137ed82614682565b602082019050919050565b6000613805601683614122565b9150613810826146ab565b602082019050919050565b6000613828601483614122565b9150613833826146d4565b602082019050919050565b600061384b600083614106565b9150613856826146fd565b600082019050919050565b600061386e601a83614122565b915061387982614700565b602082019050919050565b6000613891601d83614122565b915061389c82614729565b602082019050919050565b60006138b4601283614122565b91506138bf82614752565b602082019050919050565b60006138d7602883614122565b91506138e28261477b565b604082019050919050565b60006138fa601a83614122565b9150613905826147ca565b602082019050919050565b600061391d601683614122565b9150613928826147f3565b602082019050919050565b6000613940600d83614122565b915061394b8261481c565b602082019050919050565b60006101008301600083015161396f6000860182613a56565b5060208301516139826020860182613a56565b5060408301516139956040860182613409565b50606083015184820360e08601526139ad82826134c9565b9150508091505092915050565b600060e0830160008301516139d26000860182613a56565b5060208301516139e56020860182613a56565b50604083015184820360408601526139fd82826134c9565b9150506060830151613a126060860182613460565b506080830151613a2560808601826132a3565b5060a0830151613a3860a08601826134ab565b5060c0830151613a4b60c086018261348d565b508091505092915050565b613a5f816141e0565b82525050565b613a6e816141e0565b82525050565b6000613a80828461353b565b915081905092915050565b6000613a97828461356c565b915081905092915050565b6000613aad8261383e565b9150819050919050565b6000602082019050613acc60008301846132b2565b92915050565b60006020820190508181036000830152613aec81846132c1565b905092915050565b60006020820190508181036000830152613b0e818461331f565b905092915050565b60006020820190508181036000830152613b308184613394565b905092915050565b6000602082019050613b4d600083018461346f565b92915050565b6000602082019050613b68600083018461347e565b92915050565b60006020820190508181036000830152613b888184613502565b905092915050565b60006040820190508181036000830152613baa8185613502565b9050613bb9602083018461346f565b9392505050565b60006020820190508181036000830152613bd9816135eb565b9050919050565b60006020820190508181036000830152613bf98161360e565b9050919050565b60006020820190508181036000830152613c1981613631565b9050919050565b60006020820190508181036000830152613c3981613654565b9050919050565b60006020820190508181036000830152613c5981613677565b9050919050565b60006020820190508181036000830152613c798161369a565b9050919050565b60006020820190508181036000830152613c99816136bd565b9050919050565b60006020820190508181036000830152613cb9816136e0565b9050919050565b60006020820190508181036000830152613cd981613703565b9050919050565b60006020820190508181036000830152613cf981613726565b9050919050565b60006020820190508181036000830152613d1981613749565b9050919050565b60006020820190508181036000830152613d398161376c565b9050919050565b60006020820190508181036000830152613d598161378f565b9050919050565b60006020820190508181036000830152613d79816137b2565b9050919050565b60006020820190508181036000830152613d99816137d5565b9050919050565b60006020820190508181036000830152613db9816137f8565b9050919050565b60006020820190508181036000830152613dd98161381b565b9050919050565b60006020820190508181036000830152613df981613861565b9050919050565b60006020820190508181036000830152613e1981613884565b9050919050565b60006020820190508181036000830152613e39816138a7565b9050919050565b60006020820190508181036000830152613e59816138ca565b9050919050565b60006020820190508181036000830152613e79816138ed565b9050919050565b60006020820190508181036000830152613e9981613910565b9050919050565b60006020820190508181036000830152613eb981613933565b9050919050565b6000602082019050613ed56000830184613a65565b92915050565b6000604082019050613ef06000830185613a65565b613efd60208301846132b2565b9392505050565b6000606082019050613f196000830186613a65565b613f266020830185613a65565b8181036040830152613f388184613502565b9050949350505050565b600060e082019050613f57600083018a613a65565b613f646020830189613a65565b8181036040830152613f768188613502565b9050613f85606083018761346f565b613f9260808301866132b2565b613f9f60a08301856134ba565b613fac60c083018461349c565b98975050505050505050565b6000613fc2613fd3565b9050613fce828261428f565b919050565b6000604051905090565b600067ffffffffffffffff821115613ff857613ff76143c5565b5b6140018261440d565b9050602081019050919050565b6000819050602082019050919050565b6000819050602082019050919050565b6000819050602082019050919050565b6000819050919050565b60008190508160005260206000209050919050565b600081519050919050565b600081519050919050565b600081519050919050565b600060059050919050565b600081519050919050565b6000602082019050919050565b6000602082019050919050565b6000602082019050919050565b6000602082019050919050565b600082825260208201905092915050565b600082825260208201905092915050565b600082825260208201905092915050565b600081905092915050565b600081905092915050565b600082825260208201905092915050565b600082825260208201905092915050565b600081905092915050565b6000614149826141e0565b9150614154836141e0565b92508282101561416757614166614309565b5b828203905092915050565b600061417d826141c0565b9050919050565b60008115159050919050565b6000819050919050565b60008190506141a882614845565b919050565b60008190506141bb82614859565b919050565b600073ffffffffffffffffffffffffffffffffffffffff82169050919050565b6000819050919050565b600060ff82169050919050565b60006142028261419a565b9050919050565b6000614214826141ad565b9050919050565b82818337600083830152505050565b60005b8381101561424857808201518184015260208101905061422d565b83811115614257576000848401525b50505050565b6000600282049050600182168061427557607f821691505b6020821081141561428957614288614367565b5b50919050565b6142988261440d565b810181811067ffffffffffffffff821117156142b7576142b66143c5565b5b80604052505050565b60006142cb826141e0565b91507fffffffffffffffffffffffffffffffffffffffffffffffffffffffffffffffff8214156142fe576142fd614309565b5b600182019050919050565b7f4e487b7100000000000000000000000000000000000000000000000000000000600052601160045260246000fd5b7f4e487b7100000000000000000000000000000000000000000000000000000000600052602160045260246000fd5b7f4e487b7100000000000000000000000000000000000000000000000000000000600052602260045260246000fd5b7f4e487b7100000000000000000000000000000000000000000000000000000000600052603260045260246000fd5b7f4e487b7100000000000000000000000000000000000000000000000000000000600052604160045260246000fd5b600080fd5b600080fd5b600080fd5b600080fd5b600080fd5b6000601f19601f8301169050919050565b7f41646472657373206e6f74206f6e2074656d706f726172792062616e00000000600082015250565b7f5375626d697474696e6720746f2077726f6e672070726f6a6563740000000000600082015250565b7f4e6f7420612052334b5449464945520000000000000000000000000000000000600082015250565b7f4f776e61626c653a206e6577206f776e657220697320746865207a65726f206160008201527f6464726573730000000000000000000000000000000000000000000000000000602082015250565b7f35207265776172642076616c756573206e656564656400000000000000000000600082015250565b7f57726f6e672072657761726420666f72207365766572697479206c6576656c00600082015250565b7f4661696c656420746f207265776172642072336b746966696572000000000000600082015250565b7f416c726561647920726567697374657265640000000000000000000000000000600082015250565b7f416c7265616479206f6e2074656d706f726172792062616e0000000000000000600082015250565b7f5265706f7274206d61726b656420617320696e76616c69640000000000000000600082015250565b7f4e6f7420612072336b7469666965720000000000000000000000000000000000600082015250565b7f4e6f7420616e2041444d494e0000000000000000000000000000000000000000600082015250565b7f42616e207374696c6c2061637469766500000000000000000000000000000000600082015250565b7f57726f6e67207265706f72742064617461000000000000000000000000000000600082015250565b7f4f776e61626c653a2063616c6c6572206973206e6f7420746865206f776e6572600082015250565b7f496e76616c6964207365766572697479206c6576656c00000000000000000000600082015250565b7f556e6b6e6f776e206163636f756e742074797065000000000000000000000000600082015250565b50565b7f4163636f756e74207065726d616e656e746c792062616e6e6564000000000000600082015250565b7f5065726d616e656e742062616e2063616e2774206265206c6966746564000000600082015250565b7f50726f6a65637420555249206e65656465640000000000000000000000000000600082015250565b7f52336b7469666965722074656d706f726172696c792f7065726d616e616e746c60008201527f792062616e6e6564000000000000000000000000000000000000000000000000602082015250565b7f4163636f756e742074656d706f726172696c792062616e6e6564000000000000600082015250565b7f42616e206475726174696f6e20746f6f2073686f727400000000000000000000600082015250565b7f4e6f7420612050524f4a45435400000000000000000000000000000000000000600082015250565b6002811061485657614855614338565b5b50565b6005811061486a57614869614338565b5b50565b61487681614172565b811461488157600080fd5b50565b61488d81614184565b811461489857600080fd5b50565b6148a481614190565b81146148af57600080fd5b50565b6148bb816141e0565b81146148c657600080fd5b50565b6148d2816141ea565b81146148dd57600080fd5b5056fea26469706673582212200f3ebb74a7aaf2c00ccdf76a68cb01368c2f9ec0cdef7b1b037c05c0be3d4ecd64736f6c63430008070033",
  "linkReferences": {},
  "deployedLinkReferences": {}
}